:100000000C942A000C9434000C9434000C943400AA
:100010000C9434000C9434000C9434000C94340090
:100020000C9434000C9434000C9434000C94340080
:100030000C9434000C9434000C9434000C94340070
:100040000C9434000C9434000C9434000C94340060
:100050000C94340011241FBECFE5D8E0DEBFCDBF25
:100060000E94B9010C94BE020C9400008AB3816016
:100070008ABB8AB382608ABB8AB384608ABB8AB334
:1000800088608ABB8AB38F7E8ABB8AB38F7D8ABB26
:100090008AB38F7B8ABB8AB38F778ABB8BB380612D
:1000A0008BBB8BB380628BBB8BB380648BBB8BB3FE
:1000B00080688BBB089581309105B9F01CF4892BC1
:1000C00039F0089582309105E9F0039741F10895E0
:1000D0008BB38E7F8BBB8BB382608BBB8BB3846007
:1000E0008BBB8BB388608BBB08958BB38D7F8BBB31
:1000F0008BB381608BBB8BB384608BBB8BB388600D
:100100008BBB08958BB38B7F8BBB8BB382608BBB18
:100110008BB381608BBB8BB388608BBB08958BB333
:10012000877F8BBB8BB382608BBB8BB381608BBBB8
:100130008BB384608BBB0895CF93DF93C1E0D0E095
:100140007DC080E090E00E945B00CC9905C0CC9B14
:10015000FECFC7E3D0E014C0CD9905C0CD9BFECF44
:10016000C8E3D0E00DC0CE9905C0CE9BFECFC9E359
:10017000D0E006C0CF9904C0CF9BFECFCFE2D0E045
:1001800081E090E00E945B00CC9905C0CC9BFECF43
:10019000C4E3D0E014C0CD9905C0CD9BFECFC5E32C
:1001A000D0E00DC0CE9905C0CE9BFECFC6E3D0E017
:1001B00006C0CF9904C0CF9BFECFCAE2D0E082E058
:1001C00090E00E945B00CC9905C0CC9BFECFC1E3C0
:1001D000D0E014C0CD9905C0CD9BFECFC2E3D0E0E6
:1001E0000DC0CE9905C0CE9BFECFC3E3D0E006C0C4
:1001F000CF9904C0CF9BFECFCDE2D0E083E090E06A
:100200000E945B00CC9906C081E00E942601CC9B35
:10021000FECF14C0CD9905C0CD9BFECFC0E3D0E08A
:100220000DC0CE9905C0CE9BFECFCDE3D0E006C079
:10023000CF9904C0CF9BFECFCBE2D0E0C130D10537
:1002400009F47FCFCE01DF91CF91089595B39F70D0
:10025000282F207F922B95BB92B39D7F92BB92B3A8
:100260009B7F92BB92B3986092BB000092B3977F42
:1002700092BB32E43A95F1F700C025B330E1839F99
:10028000C0011124922F9F70892B85BB82B3886097
:1002900082BB000082B3877F82BB89EF90E0019729
:1002A000F1F700C00000089584B3826084BB84B37A
:1002B000846084BB84B3886084BB81B3886081BB65
:1002C00081B3826081BB81B3846081BB82E00E9484
:1002D000260188E20E9426018CE00E94260186E029
:1002E0000E94260181E00E94260187E893E10197A0
:1002F000F1F700C00000089595B39F70282F207F6C
:10030000922B95BB92B3926092BB92B39B7F92BBB0
:1003100092B3986092BB000092B3977F92BB32E495
:100320003A95F1F700C025B330E1839FC001112455
:10033000922F9F70892B85BB82B3886082BB00009F
:1003400082B3877F82BB89EF90E00197F1F700C00D
:1003500000000895882321F0813021F080E003C05F
:1003600080E801C080EC603108F4860F0E9426010D
:100370000895CF93DF9300D000D000D0CDB7DEB783
:100380000E9454010E9436000E949C004C010E9471
:100390009C00F82E0E949C005C010E949C00E82EAC
:1003A0006401CA0CDB1C1C821D821E8280E28C83CD
:1003B00084010A191B0919821A821B828983882DDC
:1003C0000E947C018F2D0E947C018A2D0E947C015D
:1003D0008E2D0E947C0180E090E009C0E4E0F0E016
:1003E000EC0FFD1FE80FF91F20E2208301968430F7
:1003F0009105A4F32BE2F2122FC066E080E00E9488
:10040000AA0140E150E0BE016C5F7F4FC6010E942F
:100410007E02C12CD12C1CC0E4E0F0E0EC0FFD1FEB
:10042000EC0DFD1D8081803320F480E20E947C0170
:1004300003C080EC0E942601E4E0F0E0EC0FFD1F19
:10044000EC0DFD1D80810E947C018FEFC81AD80A37
:1004500094E0C916D10404F32FE782E392E021501F
:1004600080409040E1F700C0000080E090E009C0CB
:10047000E1E0F0E0EC0FFD1FE80FF91F20E2208320
:10048000019683309105A4F32DE2F2122DC066E0AF
:1004900080E00E94AA0140E150E0BE016F5F7F4F03
:1004A000C8010E947E0200E010E01BC0E1E0F0E025
:1004B000EC0FFD1FE00FF11F8081803320F480E2FC
:1004C0000E947C0103C080EC0E942601E1E0F0E084
:1004D000EC0FFD1FE00FF11F80810E947C010F5F78
:1004E0001F4F0330110514F38FE792E322E0815090
:1004F00090402040E1F700C0000046CF4532510552
:1005000020F4423010F00C948902FB011082CB01E0
:100510000895BB274A3031F4992322F4BDE2909527
:1005200081959F4F0C949502BB27FB015527AA2765
:10053000880F991FAA1FA41710F0A41B8395505170
:10054000B9F7A05DAA3308F0A95DA193009779F7E8
:10055000B111B1931192CB010C94AE02DC01FC01FC
:10056000672F71917723E1F7329704C07C916D93E7
:1005700070836291AE17BF07C8F30895F894FFCF58
:00000001FF
